:100000000C94140B0C94310B0C94310B0C94310B9D
:100010000C94310B0C94A61B0C94310B0C94310BEB
:100020000C94310B0C94FB1B0C94310B0C94310B86
:100030000C94310B0C940A1C0C94310B0C94310B66
:100040000C942D1C0C94310B0C94310B0C94310B33
:100050000C94310B0C94310B0C94310B0C94310B30
:100060000C94310B0C94310B00407A10F35A00A021
:10007000724E18090010A5D4E80000E87648170071
:1000800000E40B54020000CA9A3B000000E1F505B1
:10009000000080969800000040420F000000A086FB
:1000A00001000000102700000000E803000000002D
:1000B0006400000000000A000000000001000000D1
:1000C00000002C76D888DC674F0823DFC1DFAE59EB
:1000D000E1B1B796E5E3E453C63AE651997696E87E
:1000E000E6C28426EB898C9B62ED407C6FFCEFBC02
:1000F0009C9F40F2BAA56FA5F490055A2AF75C932D
:100100006B6CF9676DC11BFCE0E40D47FEF520E662
:10011000B500D0ED902E0300943577050080841E45
:10012000080000204E0A000000C80C333333330FA0
:10013000986E12831141EF8D2114893BE65516CF3D
:10014000FEE6DB18D1844B381BF77C1D901DA4BB49
:10015000E424203284725E228100C9F124ECA1E5FE
:100160003D27BF0002020304030404080BFFFE0640
:10017000FE07FF0134028B0838200500A603210783
:10018000B2A273480122079BAE93AC00230E459E9A
:1001900057A6345499D250654A00240D4D9E9BC7F2
:1001A0001C72E491C68E00250B3DA233531A3A0F00
:1001B000550E260BB6A13B35D46324390427051907
:1001C000AF332808C39E9B92670E2909C39E93A351
:1001D0007295002A0824AE9B4652312B0A2DA69B0D
:1001E000511C32A3082C079B9AA74A002D060DAE7E
:1001F00033042E058AA2232F0AC49E5FE69863CE9D
:1002000000300D3DA2B7D448238D34925A00310DF1
:100210003EA22B47461A69A4911C0332093DA2B79E
:100220006CE91A23330B3DA2B76CB5D1486A01348F
:100230000B3EA2AF67728DAD9102350B3DA273E408
:1002400091EC391600360C3DA2B7D4C823A991D43D
:1002500002370A3DA273242DB5D412380C3DA2B743
:10026000D4486AA991D402390C3DA2B7D4486AE4B3
:1002700091D4023A07A2A2A391003B08339AA7297E
:1002800055023C072CA6AB6C033D081CAA33321A5E
:10029000013E07ACA6A32D133F0935A2B7A29B943C
:1002A00000400C469E37658AAA9F43C309410CB79C
:1002B000A13732DAA81E52A903420CB6A133A452C8
:1002C000232A6B8C04430A35A237D6C8965A0044B9
:1002D0000AB6A133A4F26B8C04450CB6A173693441
:1002E000A2466A0C01460CB6A1736934A2467A4450
:1002F00000470B35A2B7D4C863243502480BB7A119
:10030000B39639A4924A1D490934A23392748D00E0
:100310004A0AB6A13BB2463E27004B0DB7A1B3A493
:10032000CA1B8DACD448024C0CB6A133B2461A6934
:10033000A4C6104D0AB6A1A393D750D52A4E0CB728
:10034000A1B3AEB8A2924ACD044F0C35A2B7D4489F
:10035000238DA41600500BB6A133A4728DA84704B8
:10036000510C3D9EB7D448238DA43612520DB7A12F
:1003700033B4924A8EACD44802530A35A237E6D041
:10038000238E05540CB6A173241535D2488F04551D
:100390000CB7A1B396A9A4924A4F00560CB7A1B3CB
:1003A000969D32DA68C30C570DB7A1A3926AA67264
:1003B000E88D4A00580C36A223D5C81AE991A4004A
:1003C000590DB7A133959423230D351A095A0935D0
:1003D000A27324E91A235B08C39E3394AF015C0C1B
:1003E000449E9333CA19E58C72005D08C39EB37CAA
:1003F0000D015E071DB29B97015F050E9A736006A3
:1004000012BB1303610A2EA237951CC91A03620D91
:10041000BEA1B39146232AAF311200630A2DA2B7C1
:10042000D4C84A2D00640A3EA2BB911CC9CF2165E5
:10043000092DA2B7D4B8D108660A3DA2BBE450DAB0
:100440001C02670C3E9AA746F23932522302680A10
:10045000BEA1B39146232A7F690C3EA2ABC99191FC
:10046000461AC9316A0A4C9AABD1889E43016B0D7A
:10047000BFA1B3A1864A8EBCD1C86A6C0D3EA2331F
:1004800032D248238D3492636D09AEA133E450FD1E
:10049000036E08AEA1A3A4F2076F0A2DA2B7D44839
:1004A00023A905700BBE9933A4F235A21E11710B5E
:1004B0003E9AA746F23932D223720A2EA2A3AEA4E4
:1004C000911E11730C2EA237D24623A3311400744F
:1004D0000C3EA2A7911E52238DCC05750BAFA1B384
:1004E000A4924A2A3D047609AEA1B39C7BA3087767
:1004F0000CAFA1A3926A0E3D728A00780A2EA2B3B5
:10050000D4C87A2435790EBF99B396A974CA6823E2
:10051000BD11007A092DA273496B8C007B09C49E22
:10052000ABA4D2D2167C06399F73047D0A449EA3E5
:10053000A556D292007E0615AEE702A00500A603DE
:10054000A107BA9A23C711A20D459E9B511E73A302
:1005500011338A00A30C3EA23B55CE436724C70249
:10056000A40A2DA693D34C71E500A50D3EA22355F8
:100570004C63CA31F54800A607499B33D208A70D42
:10058000459E37524CB253C5341200A8068BB69321
:1005900002A90C3EA2AB634A5654AACC12AA09ACDB
:1005A000AAB3D1CA6804AB09AFA1AB7C2BAD04AC34
:1005B000081DAA3334CA28AD060DAE3304AE0C3F75
:1005C000A2BBABB44CD59D2700AF060CB63302B02E
:1005D000081CB2A7625200B10A35A29B511C3253CB
:1005E00043B207A3AEB7AA01B307A3AEB3F202B4F6
:1005F0000612B7A700B50EBF99B3A4924A2A39567E
:10060000C61902B60D469E37564F95534E394525AD
:10061000B7058AAE23B8079B9A971700B907A3AE10
:1006200023AB01BA09ACAAA762D27004BB0AAFA17E
:10063000A3B4D2CA2700BC0EBFA1A371598E949354
:100640004C23C304BD0DBFA1A371598E24533BC3DA
:1006500001BE0EBFA1B361AEA2AA934C23C304BFD7
:100660000A3D9AAB492DCDB400C00FCFA19BA9CCB8
:100670001C196D540FA9D401C10FCFA19F61668FC2
:100680008C36AA8754EA00C20FCFA19F61CAAC91F1
:10069000D146F5904A1DC30FCFA1AB62CD1A196D9B
:1006A000540FA9D401C40EC7A19B326B64B4513D51
:1006B000A45207C510CFA1AB51CC48A391D146F5A8
:1006C000904A1DC60CB7A137E64AE6884A1D01C705
:1006D0000C459A37D6C896DA284A00C80FCEA19B97
:1006E0007126C79269448DD41802C90FCEA19F51BB
:1006F000A6C79269448DD41802CA0FCEA19B514D52
:100700008E25D3881AA93104CB0EC6A1579363C98D
:1007100034A2466A0C01CC0B4CA29751862349D7D0
:1007200008CD0A4CA25BE391A46B04CE0B4CA2173C
:1007300053862349D708CF0B44A293321C49BA46AB
:1007400000D00DB6A133A41A2BC9A4C64800D110FD
:10075000CFA1AB624DAF25E38A432AB51400D20E78
:100760004DA2976126971A69A491D402D30E4DA287
:100770009B33BDD448238DA41600D40E4DA29B53A9
:10078000A6961A69A491D402D50E4DA267666AA9ED
:1007900091461A492D00D60D45A257534B8D34D2A0
:1007A000486A01D7092DA693535DD501D80CB7A18E
:1007B000BB9239A4924AA509D90ECFA19BA9CCBA64
:1007C0004C2595547A02DA0FCFA18F32CCACCB54A2
:1007D0005249A52700DB0FCFA19F61CAF45AA69208
:1007E0004A2A3D01DC0EC7A19B32BD96A9A4924ABC
:1007F0004F00DD11CFA10F33CCF454528E8C34D482
:10080000682400DE0BB6A1B3D188CA35D206DF0C4E
:10081000B7A1BB551ED292432900E00C46A29B71A2
:10082000A66794235963E10D46A29F5166CD2847E0
:10083000B2C600E20D46A29B514DCF2847B2C6007A
:10084000E30D46A2A7CA4CCF2847B2C600E40B3E30
:10085000A257D333CA91AC31E50D4EA2AB63D6F4A7
:100860008C72246B0CE60AAEA1A7964A634935E761
:100870000C3D9AB7D4C84A6D142500E80C45A297E0
:100880006126971A371A01E90B45A29B33BDD4B8EC
:10089000D108EA0C45A29B53A6961A371A01EB0B16
:1008A0003DA257534B8D1B8D00EC0D46A29B71A6AC
:1008B00037D248233906ED0D46A29F51666DA491AB
:1008C00046720CEE0D46A29B514D6FA49146720CE0
:1008D000EF0C3EA257D31B69A4911C03F00D45A257
:1008E000A3A24C72AC9146520BF10EC7A1AB624D64
:1008F0002BADA4924AAA01F20D45A2976126971A40
:100900006924B500F30C45A29B33BDD44823A90547
:10091000F40D45A29B53A6961A6924B500F50C4523
:10092000A267666AA99146520BF60C3DA257534B3B
:100930008D34925A00F7092DA69BA9A1A908F80C9D
:100940003D9E8FD252E3522B2300F90EC7A19BA9E3
:10095000CC5A524925951E02FA0EC7A19F61662EF8
:10096000A9A4924A0F01FB0EC7A19F61CAF4924A43
:100970002AA9F410FC0DBFA19B32BDA4924A2A3DC6
:1009800004FD10D7998F32CCACCB543A65B4911E8C
:1009900019FE0ECE99B39146232A5F23EA1101FF77
:1009A00010CF999B32BD96A974CA68233D320000CE
:1009B000000004FFFF0000BF00030304040405055A
:1009C0000C11FFFD0AFD0BFE01BB03DC0C542005DE
:1009D0000018352108B20B351E44042208566A352A
:1009E000443C09231BC9F8B4244289502294880E40
:1009F000228950223A882442895022948800241166
:100A0000D7F9F4A4B2438C3AAD4E698798540625C1
:100A100012B8097568226D74C8883487D044DA2802
:100A20000026109709B56612915838A19824229192
:100A3000012707526C350E03280DD4EBB424221580
:100A4000916E223501290ED4EA34642235912E228A
:100A50001511002A0D6859F5C4B24388481349009E
:100A60002B0C8819F5C46A87834CAC062C0953DB20
:100A7000342C9410002D062749351E2E06230B35E5
:100A80000C2F10E7E97415A58A52A154512A944AF3
:100A900001300FB809B568222D421E25226D2400B1
:100AA000310CB809F584348958BF1D02320DB709DD
:100AB00075482A41A9A2DE0E02330FB70975482AEC
:100AC00041B5B1EA902422013412B80975A5439AC0
:100AD00044A41493C82487A85858350FB709350E75
:100AE00052558B4CAA4A9294003612B809F54853D5
:100AF00065C9682411324A44321200370FB70935EC
:100B00000E32A9502A942A4AD5003812B709B56680
:100B10001235492C3693A8B149D446003912B80988
:100B2000B5682289902811AD8855A5231A003A0886
:100B3000730B35EC20033B0AA3DB34EC200B2504BC
:100B40003C0B9909F5A534C63977013D0B59283579
:100B50001EE8A0C381003E0C990835E4DC873456BA
:100B600039003F0FA709752A329A543693CAA16AF1
:100B7000004018C9F8B46A2A52CA8A28A214518AB5
:100B8000284526153944262B014114AA08B5E8103A
:100B9000393914150945429B50249490084213A9F1
:100BA00008356E4A42894C6453124A841299E4040F
:100BB0004312A908F52891D14448D70E114A46336B
:100BC00012004416A908358CA2914C2494082542A1
:100BD00089502213892636004513A809350E11992C
:100BE000442C8AD54431B14C223B0C4612A809351D
:100BF0000E1199442C8AD54431B16A0D004715AACB
:100C000008F528A125A1440E91436457915034134F
:100C100096004815A90835281499482692894E321D
:100C2000914C2413C9240C490BA809350E31B17E0F
:100C30003B044A0FA908B5AE729D6422994826ABC1
:100C4000014B13A90835281499484D22A4164532A2
:100C5000914CA5324C0EA90835AC72BD896422D9DD
:100C600081004D15AA08358613A168A74348A22420
:100C700051128A841212014E18AA083528959988B3
:100C8000A41252519228892222114936A94C004FB0
:100C900011A908B56A4A328994AB442692C94A0020
:100CA0005011A908356E4A4289502213D9E4CA3638
:100CB000005114C9E8B46A4A328994AB442692C9F7
:100CC000AA229105005213A908358C2299924CA4AE
:100CD0005614C9946492CA005310A809B52811513A
:100CE000B1CC5C2C49222400540DA809350E223DBC
:100CF000C5C43A5A005517AA08354814A148281205
:100D00008A8422A1482812CA44521A005615AA08F9
:100D1000354814A148281309454291944C974384BF
:100D2000005717AA08354814A148A2245192A819BF
:100D300045429150241489005814AA08354814A13A
:100D40004C24A5CB2172AA48269490085915AA08CC
:100D5000354814A14C241449E972881C2287884D17
:100D6000005A0FA709350E329270A83814D10E021E
:100D70005B09D4EB344CFA4F045C10E7E934A4620D
:100D8000A9B2543A55968AA5025D09D4EA3448FAC4
:100D90004F065E0A4879F5A4349144285F072AD8A3
:100DA000341E0C6007348A35640A610F7809B5680F
:100DB00022B1C82293C84414016212B90835E6BAB8
:100DC000CC468A12A1442819499600630E7808B5CA
:100DD000281151912C97892A006413B90875E7DA14
:100DE0002622D14428114A8422D16C32650E78091A
:100DF000B5682289F05097892A00660EB809F5680F
:100E00002265E14DACE305006714A9D8B42613D1DF
:100E10004428114A8422D16C22572B016811B90849
:100E200035E6BACC466A22994826924918690CA838
:100E300009F5C47228596F87006A0BD6D9F48472F9
:100E4000A37EBC006B12B90835E6BA5444328990CF
:100E50002A118A4493026C0AB80975C8FAB743008C
:100E60006D137A0835264A87904449A2245192A8E6
:100E70004C24036E1079083526B3919A482692893E
:100E80006412066F0E7809B56822899051229291FA
:100E9000007013A9D83426B391A24428114A462AD7
:100EA00033B9B8087113A9D8B42613D14428114A0C
:100EB0008422D16C22572D720C79083528B391BA4F
:100EC000D61300730B7709750EB16ADB2102740D1E
:100ED0009908B5E4D2434CAE9BAC02751179083544
:100EE000462399482692896422D16C3276107A087A
:100EF000354814A14C241449C974210077127A088A
:100F0000354814A148A21691048D22A14804780FF7
:100F10007809354613918C2AA58924A3017912AA50
:100F2000D8344814A14C241449C9747588B8087A77
:100F30000B7709350E22A16E07017B0DD4EBB4248B
:100F4000224D21994837017C07D2EC343E147D0EA6
:100F5000D4EB3464226D3189481711007E0A383988
:100F6000758612C50900A005001835A108A2DC3459
:100F7000488703A210A709F5A4C28A882A1689887F
:100F8000521100A310A809F5682265A1C92816D539
:100F90000E1200A40E7819358412935230A46411F5
:100FA0000AA512AA08354814A14C241449A966B10F
:100FB000596C02A609D2EC340EA54301A714CAF855
:100FC000F46C3A514533E168281B4949326D3600CB
:100FD000A808258B35241401A916AA0835C536A101
:100FE000283489A8516492D0242494998500AA0AAF
:100FF000763A75A89293A46CAB0D7908F544FA5132
:101000002414094502AC085829351EC41AAD062718
:1010100049351EAE18AA0835C536A128328A48229D
:1010200012CA489214090965662100AF06159A355F
:101030000AB00B556A752692D9443201B10F98094E
:10104000F5C4B2C3412696030F0701B209655A756C
:10105000264A9A0CB30B655A75264A428A6402B432
:1010600008348BB5244A00B514A9D83446239948CE
:101070002692896422D18832912B03B615C9F8B41F
:101080002E11FD4F11B58950229408254289EC009C
:10109000B706234B350CB80844DBB4423203B90918
:1010A000665AB544444D06BA0B763A75282226098D
:1010B000DD00BB0E790835444291502414E9370015
:1010C000BC18BA08B5E2C398B6A048660A8A84A1DB
:1010D0009944129258A21200BD19BA08B5E2D390F1
:1010E000502453921DA491884C2413C944A248ACA7
:1010F00000BE1CBB0875E61259502695C82492E81C
:1011000044141549434389242631452500BF0FA7C0
:10111000D9F4A472A8DA4C2AA3492A00C019EA0813
:10112000B5E42039488E4487C8C9A1A8482812DAF6
:101130008422A18444C117EA0875E5EA6874889C92
:101140001C8A8A8422A14D28124A4804C218EA083F
:1011500035E554911C4E87C8C9A1A8482812DA84E5
:1011600022A18444C319DA08B52632C91C850E9120
:10117000934351915024B4094542098900C419DAB6
:1011800008B52452891C850E91934351915024B483
:10119000094542098900C519EA08F5C612A9443C67
:1011A000A643E4E450542414096D4291504222C6EF
:1011B00018AA08750E229228228E4862125A4812E6
:1011C000AB864424D1A100C715D9D8F42891D144C5
:1011D00048D70E114A4633AA1C22A501C816E809B1
:1011E000B5E4EAB0434426118B6235514C2C93C8C8
:1011F0000E03C915E80975B5030F1199442C8AD55A
:101200004431B14C223B0CCA18E809F5A434911CB6
:101210007488C8246251AC268A896512D96100CBD2
:1012200018D809B52432891C7488C8246251AC26A8
:101230008A896512D96100CC0EE809B5E4EAB043A9
:101240004CACDF0E01CD0EE80935A5EAD0434CAC1D
:10125000DF0E01CE10E809F5A434911C748889F5DD
:10126000DB2100CF10D809B52432891C748889F598
:10127000DB2100D015A908358CA2914C243C49846F
:1012800012A14426124D6C00D11CDA08B52632C9D1
:101290001C4CA9CC442495908A9244491411894845
:1012A000B2496502D216E908B5E41039440EAF29F7
:1012B000C92452AE129948262B01D314E90875C5EA
:1012C000EA2835259944CA552213C9642500D41546
:1012D000E90835C544911C5A539249A45C253291C2
:1012E0004C5602D515D908B52622C91C5C53924923
:1012F000A45C2532914C5602D615D908B5244289F2
:101300001C5C539249A45C2532914C5602D70F784D
:1013100019356692898C2AA54926B201D819C9F8CF
:10132000F421A18B4C249AC82224094544894946BA
:101330006A92531C02D91CEA08B5E42039480E27EA
:10134000518422A14828128A8422A148281349697D
:1013500000DA19EA08B5E5EA70124528128A8422F3
:10136000A14828128A8432919406DB1BEA0835E5ED
:1013700054911C4AA20845429150241409454291B7
:10138000502692D200DC1BDA08F52452891C4AA2AE
:101390000845429150241409454291502692D200AA
:1013A000DD18EA08B5E5EA7012452813094552BA76
:1013B0001C2287C821621300DE11A90835C8729B60
:1013C00092502213D9E4622A00DF15B808B56822CA
:1013D0009D621299484D2293C82494C84404E01297
:1013E000B809B5E4EA509A482CB2C8243211450035
:1013F000E111B80975B5836922B1C82293C84414B4
:1014000001E213B809F5A434911C481389451699D3
:101410004426A208E312A809B5262A73204D2416F3
:10142000596412998822E413A809B52432891C480A
:1014300013894516994426A208E515C809F58612B0
:1014400099443887D2446291452691892802E61250
:101450007A07B52623894828921C484291CA8402FB
:10146000E711A8D9B4281151912C9E498C722109F9
:1014700000E811B809B5E4EA509A48223CD465A2C4
:101480000A00E910B80975B583692289F050978977
:101490002A00EA12B809F5A434911C48134984873C
:1014A000BA4C5401EB12A809B52432891C481349DF
:1014B0008487BA4C5401EC0CB80975E4EA50B2DEEA
:1014C0000E01ED0BB80975B543C97A3B04EE0EB8B1
:1014D00009F5A434911C46D6DB2100EF0DA809754F
:1014E000D4247220596F8700F014C80935C613E15F
:1014F000902493954436225122929100F114A90828
:10150000B52622C91C38998DD44432914C2493308D
:10151000F211B809B5E4EA509A4822649488642428
:1015200000F311B80935A5EA709A482264948864DA
:101530002400F412B809F5A434911C481349848C92
:1015400012918C04F512A809B5262A73204D241196
:10155000324A44321200F612A80975D42472284D7A
:101560002411324A44321200F70E8819F5C472E091
:10157000E120078A6500F81198F9B4451691446492
:101580009198242289490CF917B908B5E410394417
:101590000E1D8D6422994826928944B3C900FA141D
:1015A000B90835C5EAF0D1482692896422994834B1
:1015B0009B0CFB16B908F5C444911C381AC9443277
:1015C000914C241389669301FC16A908B52442891D
:1015D0001C381AC94432914C241389669301FD15B5
:1015E000EAD874E5EA28248A5026128AA464BA3A12
:1015F000445C04FE15E9D834E6BACC468A12A1440C
:101600002819A9CCE4E22200FF18DAD8B4245289C0
:101610001C4CA2086522A1484AA6CB217271110078
:1016200000000004FFFF000011241FBECFEFD8E030
:10163000DEBFCDBF11E0A0E0B1E0E4E3FCE402C016
:1016400005900D92AE3FB107D9F726E0AEEFB1E0BD
:1016500001C01D92A63BB207E1F70E945B1C0C94EF
:1016600018260C940000E0914406F091450630E005
:1016700020E040E060E180E496E00994CF92DF92C0
:10168000EF92FF920F931F93CF93DF9300D000D080
:101690001F92CDB7DEB7C090640600916506E09159
:1016A0004006F0914106D188102FF12CE12CE091F9
:1016B0004006F091410680892091620630916306D0
:1016C0001C821D838B8348E0849FC00111248E9D62
:1016D000A0018F9D500D9E9D500D1124240F351F8C
:1016E0003A832983E0914406F09145069E012F5FDD
:1016F0003F4F41E06FE080E496E009951F5F812F46
:10170000801B8C1528F48FEFE81AF80A1D1578F263
:101710000F900F900F900F900F90DF91CF911F912E
:101720000F91FF90EF90DF90CF9008950E943E0BB5
:101730000C94330B40919206E0918806F091890653
:10174000249130E0042E02C0359527950A94E2F7E3
:10175000942F980F983078F4E22F909392062FEF01
:101760003FEFA90102C0440F551F8A95E2F7CA0155
:1017700080958E2308953196F0938906E09388062C
:10178000E49138E0341B01C0EE0F3A95EAF7E22B02
:101790009850E3CF0F933091AE06332309F459C02C
:1017A0004115510509F455C04230510530F0223041
:1017B00009F043C00196841B950B022F017020FD98
:1017C0004AC020917806309179066217730708F4B1
:1017D00040C020917A0630917B0662177307C8F5E6
:1017E0002091760630917706E0917406F0917506A7
:1017F000480F591F4817590748F58217930728F5CE
:10180000A90141505109E417F50718F58E179F07F4
:1018100008F4CF014217530708F49A01281B390B2B
:10182000E0916006F09161060480F581E02DAB0146
:10183000BC0180E496E009950CC0233009F0BDCFCF
:101840006F5F7F4F641B750BB8CFCF018217930773
:10185000D0F20F9108952091740630917506821789
:101860009307B8F320917606309177068217930795
:1018700080F720917A0630917B06E0917806F0910E
:101880007906460F571F46175707A8F462177307C4
:1018900088F4A90141505109E417F507D0F66E17F5
:1018A0007F0708F4BF014217530708F49A01261B6B
:1018B000370BB6CFBF016217730758F6EDCF66231B
:1018C00029F06A3019F0862F90E008958FEF9FEF8E
:1018D00008958F929F92AF92BF92CF92DF92EF9234
:1018E000FF920F931F93CF93DF934C01EA0179018D
:1018F0008B010F5F1F4F5901A61AB70A6A01C80E64
:10190000D91E21E0A801B501C6010E94CA0BC81961
:10191000D90921E0A801B501CE010E94CA0B21E03E
:10192000A801B701C6010E94CA0B21E0A801B701B6
:10193000CE01DF91CF911F910F91FF90EF90DF903B
:10194000CF90BF90AF909F908F900C94CA0B209136
:1019500078063091790662177307D0F020917A06E5
:1019600030917B066217730798F4209174063091CA
:1019700075068217930760F02091760630917706FE
:101980008217930728F420E041E050E00C94CA0B42
:1019900008952F923F924F925F926F927F928F9213
:1019A0009F92AF92BF92CF92DF92EF92FF920F93EE
:1019B0001F93CF93DF937C018B016A01E9014901F9
:1019C000861A970A3A01680E791EB401C3010E9473
:1019D000A70C5E01AE18BF0828014C0C5D1CB501B8
:1019E000C2010E94A70C16012E183F08B401C101C4
:1019F0000E94A70CC01AD10AB501C6010E94A70C0B
:101A00000C0F1D1FB801C3010E94A70CCE0DDF1DD6
:101A1000BE01C2010E94A70CB801C1010E94A70C1F
:101A2000BE01C601DF91CF911F910F91FF90EF9002
:101A3000DF90CF90BF90AF909F908F907F906F90EE
:101A40005F904F903F902F900C94A70CE09144062C
:101A5000F091450630E020E0482F6EE080E496E00B
:101A60000994CF93DF93C0E4D6E08DA3E8A1F9A158
:101A70000190F081E02DCE010995E8A1F9A1028045
:101A8000F381E02DCE01DF91CF9109949B01DC0120
:101A90001896ED91FC9141E067E109948093BB00B9
:101AA00094E89093BC009091BC0097FFFCCF90917C
:101AB000B900987F80FF05C081E0903429F080E074
:101AC00003C081E09831D9F7089584EA8093BC007F
:101AD0008091BC0087FFFCCF9091B900987F81E096
:101AE000983009F080E00895CF93DF93CDB7DEB74B
:101AF0002C970FB6F894DEBF0FBECDBF80912406A1
:101B00009091250699838A838091260690912706D5
:101B10009B838C8380912806909129069D838E83D8
:101B200080912A0690912B069F83888780912C06AE
:101B300090912D0699878A8780912E0690912F0685
:101B40009B878C870E94650D81110AC080E02C96CE
:101B50000FB6F894DEBF0FBECDBFDF91CF910895D1
:101B600080E20E944E0D882389F3FE0131969E018A
:101B7000235F3F4F44E891919093BB004093BC009A
:101B80009091BC0097FFFCCF9091B900987F98325C
:101B9000E9F6E217F30779F794E99093BC00D7CF01
:101BA0000F931F93CF93DF93CDB7DEB7A0970FB6F8
:101BB000F894DEBF0FBECDBF0E94650D882309F4E7
:101BC0006AC081E20E944E0D882309F464C030E0AF
:101BD00020E044E854EC2F3109F44EC05093BC008F
:101BE0009091BC0097FFFCCF9091B900987F903501
:101BF00009F051C09091BB00E1E0F0E0EC0FFD1F57
:101C0000E20FF31F90832F5F3F4F2032310519F70A
:101C100094E99093BC00FE01319644E356E0BE0186
:101C2000635F7F4F8F01D8012C9111969C91322FC9
:101C3000292FDA012D933D93AD010E5F1F4F6017E1
:101C4000710789F7A0E2B6E0AF014C5E5F4F2485D3
:101C50009585322F292F2D933D9332964E175F078E
:101C6000B1F7A0960FB6F894DEBF0FBECDBFDF91DF
:101C7000CF911F910F9108954093BC009091BC00AB
:101C800097FFFCCF9091B900987F983521F49091FF
:101C9000BB0098A3B8CF80E0E4CFCF93C82F0E94B9
:101CA000D00D882381F08091240690912506CC23C5
:101CB00041F090629093250680932406CF910C9476
:101CC000740D9F7DF7CF80E0CF910895CF93C82FFB
:101CD0000E94D00D882381F080912A0690912B06D6
:101CE000807FC03108F0CFE08C2B90932B0680933F
:101CF0002A06CF910C94740D80E0CF910895CF9275
:101D0000DF92EF92FF929C01ACE4B4E00E94EC25DC
:101D10009B01AC018AE056954795379527958A95A2
:101D2000D1F7ABE2B0E00E94FB252AE030E040E0D2
:101D300050E00E94CA2584E6283660E13607410556
:101D40005105B8F4253E8CE0380741055105D8F01F
:101D5000EEE7F1E08FE090E0C68CD78CF12CE12C1F
:101D60002C153D054E055F0548F082599E4FFC013C
:101D70008081FF90EF90DF90CF9008950197329788
:101D80008F3F980749F780E0F4CF80917C00807FF7
:101D9000866080937C0080917A00806480937A00D2
:101DA00080917A0086FDFCCF809178009091790037
:101DB0000895673189F020F46431E9F081E00895F5
:101DC000683111F16931D1F784E98093BC008091C9
:101DD000BC0084FDFCCFF2CFF90184E8442371F309
:101DE00091919093BB008093BC009091BC0097FFB1
:101DF000FCCF4150F3CF1092B90082E08093B8003D
:101E000084E08093BC00DACF24EA2093BC002091C8
:101E1000BC0027FFFCCFFC0186898093BB0084E8CF
:101E20008093BC008091BC0087FFFCCFC7CFDC0152
:101E30001896ED91FC9130E020E040E069E10994D2
:101E4000DC011896ED91FC9130E020E040E068E183
:101E50000994CF93DF931F92CDB7DEB76983BE019C
:101E60006F5F7F4F0E94460D0F90DF91CF910895D5
:101E70000F931F93FC0180AD91ADA2ADB3AD4A1796
:101E80005B0740F48017910748F00417150730F0FE
:101E900080E012C080179107C0F3FACF84A995A9FA
:101EA00046A957A96417750750F48217930758F08D
:101EB00081E02617370760F71F910F910895821769
:101EC0009307B0F3E5CF81E0F7CF2F923F924F9287
:101ED0005F926F927F928F929F92AF92BF92CF92BA
:101EE000DF92EF92FF920F931F93CF93DF93CDB7C3
:101EF000DEB7A6970FB6F894DEBF0FBECDBF9A8BA4
:101F0000898B7C8B6B8B5EA34DA3190189010F5FBD
:101F10001F4F060F171F9A012F5F3F4F280F391FC2
:101F2000AB0142195309BC018DA19EA1681B790B1D
:101F300080E496E00E94380F882309F467C1ADA1C0
:101F4000BEA16D01F12CE12C9D010E94EC25698F51
:101F50007A8F8B8F9C8F9B01AC01220F331F441F04
:101F6000551F29873A874B875C872101712C612C8B
:101F70009101D1010E94EC256D8F7E8F8F8F98A3E8
:101F8000DC01CB01880F991FAA1FBB1F8D879E877D
:101F9000AF87B88B61E070E080E090E06C197D095C
:101FA0008E099F096C197D098E099F09A3010E9462
:101FB000AE250E94AE256D837E838F839887A7010F
:101FC00096016D857E858F8598890E94AE256D8BE3
:101FD0007E8B8F8B988F812C912C540119821A82C1
:101FE0001B821C8210E000E029813A814B815C81D8
:101FF000898D9A8DAB8DBC8D280F391F4A1F5B1FB1
:1020000029A33AA34BA35CA32B893C8949895A890C
:10201000B8018DA19EA10E94690C0F5F1F4F2981FD
:102020003A814B815C8189859A85AB85BC85280F77
:10203000391F4A1F5B1F29833A834B835C8329A185
:102040003AA14BA15CA1820E931EA41EB51ED50120
:10205000C401880F991FAA1FBB1F2D813E814F818C
:102060005885280F391F4A1F5B1F29A33AA34BA38A
:102070005CA3121613061406150664F54DA15EA1A5
:10208000415051095EA34DA38D899E89AF89B88DBA
:102090002D853E854F855889821B930BA40BB50B6C
:1020A0008D8B9E8BAF8BB88F89A19AA1ABA1BCA160
:1020B00088199909AA09BB094C015D018D819E818E
:1020C000AF81B885820F931FA41FB51F8D839E8398
:1020D000AF83B88729813A814B815C818D899E8944
:1020E000AF89B88D82179307A407B5070CF07CCF92
:1020F00061E070E080E090E0641975098609970955
:102100006419750986099709A70196010E94AE25F1
:102110000E94AE254B015C0129853A854B855C8583
:10212000C301B2010E94AE2569837A838B839C83AD
:10213000C12CD12C7601412C512C320110E000E051
:102140002D8D3E8D4F8D58A1240D351D461D571DDB
:102150002D833E834F8358872B893C8949895A892F
:10216000B101C8010E94690C0F5F1F4F8D859E85CC
:10217000AF85B889480E591E6A1E7B1E2D813E818F
:102180004F815885C20ED31EE41EF51ED701C6012D
:10219000880F991FAA1FBB1F9C01AD01280D391D77
:1021A0004A1D5B1D2D833E834F83588712161306ED
:1021B000140615060CF531E0231A310889819A813D
:1021C000AB81BC8129853A854B855C85821B930B4D
:1021D000A40BB50B89839A83AB83BC838D819E81CD
:1021E000AF81B8858C199D09AE09BF096C017D01CD
:1021F000820E931EA41EB51E29813A814B815C81FB
:1022000024153505460557050CF09ACFA6960FB64E
:10221000F894DEBF0FBECDBFDF91CF911F910F911C
:10222000FF90EF90DF90CF90BF90AF909F908F90F6
:102230007F906F905F904F903F902F9008956F9296
:102240007F928F929F92AF92BF92CF92DF92EF9246
:10225000FF920F931F93CF93DF933C015B01EA0141
:102260008A010F5F1F4F060F171F9C012F5F3F4F03
:10227000240F351FAB014C1B5D0BBC016C1B7D0B90
:1022800080E496E00E94380F882379F101E010E0A5
:102290000C1B1D0BEE24FF24EC1AFD0AEE0CFF1C98
:1022A0009501A301BE0190E080E00E94C90C882442
:1022B0008394912CD12CC12C17FD06C0219782E06C
:1022C000E80EF11C0E0D1F1D8FEFC81AD80A82E010
:1022D000880E911C080D191D9501A301BE01C601B0
:1022E0000E94C90CCC16DD0638F3DF91CF911F9107
:1022F0000F91FF90EF90DF90CF90BF90AF909F90A5
:102300008F907F906F9008958F929F92AF92BF921F
:10231000CF92DF92EF92FF920F931F93CF93DF93B1
:1023200008E010E027E630E042E050E06FE570E0C2
:1023300080E496E00E94380F882309F45DC0C2E073
:10234000D0E0CE0184569E4F6C015E019FEFA91A2A
:10235000B90A850127E630E0AE016FE570E080E460
:1023600096E00E94380F882309F441C00091B4061A
:102370008FE5882E912C98E0E92EF12C11E0F601E2
:102380002081212390E080E0F6013081312321116A
:102390001CC051F02091B306211124C021E001118D
:1023A00020E02093B40615C00196FFEF8F1A9F0A14
:1023B000110F21F43FEFC31AD30A11E0E1E0EE1A46
:1023C000F10811F7222331F302C03111EDCF009350
:1023D000B40620E0AC01BE01F401E81BF90BCF010B
:1023E0000E94CA0BE114F10451F60093B406E50112
:1023F000C830D10509F0A5CFDF91CF911F910F9182
:10240000FF90EF90DF90CF90BF90AF909F908F9014
:10241000089590E080E00895213069F038F022308E
:1024200079F0840F911D47FD9A950895860F911DAF
:1024300067FD9A950895841B910947FD939508952A
:10244000861B910967FD93950895213069F038F056
:10245000223079F0861B910967FD93950895840FCA
:10246000911D47FD9A950895860F911D67FD9A95D8
:102470000895841B910947FD939508959F92AF920B
:10248000BF92CF92DF92EF92FF920F931F93CF9361
:10249000DF93182F962EC0918E06F0908F06009134
:1024A00090060C1BD02F101708F4D12FA0908C068B
:1024B000B0908D06E09096062E2D4F2D6C2F8091BA
:1024C0008A0690918B060E940C126C012E2D4F2DC6
:1024D0006C2FC5010E942512BC01809194069110B9
:1024E00006C08091930681110AC080919506809361
:1024F000B4064D2F50E02E2DC6010E94CA0B1017B6
:1025000020F0101BF394C0E0CACFC10FC0938E0619
:10251000F0928F06DF91CF911F910F91FF90EF9076
:10252000DF90CF90BF90AF909F900895FC01E60F91
:10253000F11D849190E0982F88273196E4918E0FB9
:10254000911D08952F923F924F925F926F927F92CA
:102550008F929F92AF92BF92CF92DF92EF92FF92B3
:102560000F931F93CF93DF937C016B01109258065A
:102570002A01712C612CAA24A394B12CF20161913F
:102580002F01E0914206F091430680E496E0099520
:102590004C018F3F980709F4A5C1029679F3809109
:1025A00096068130A1F040F0823009F450C08330AB
:1025B00009F459C0C60109C0E0918606F09187066A
:1025C00080E496E009958C0D9D1D97010BC0E0916C
:1025D0008606F091870680E496E009959701281B0E
:1025E000390BC60130938B0620938A0690938D0693
:1025F00080938C06C0918406D091850667965FEF24
:102600008516910411F008F0C6C081E68816910481
:10261000A8F18091AA069091AB06C80FD91FCE01F0
:102620000196FC012491211132C090E080E02091BC
:102630009606213009F44DC108F448C1223009F44E
:102640004BC1233009F44BC1680E791E97CFE0913E
:102650008606F091870680E496E00995A601481B5E
:10266000590BCA01B2CFE0918606F091870680E44B
:1026700096E009959701280F391FB3CFE1E48E1634
:10268000910468F28091A8069091A906C6CFFE0138
:1026900024912815190409F079C02296209729F26F
:1026A000D0938906C09388061092920680919B066B
:1026B0000E949A0B8093900680919C060E949A0B30
:1026C000882E809391069091B4069093940681E0B1
:1026D000911180E080939506D0919D068D2F0E94E8
:1026E0009A0B382EC0919E068C2F0E949A0B282E92
:1026F00010919F06812F0E949A0B1150950101C0E5
:10270000220F1A95EAF7982E921A00919006101649
:102710000CF0A2C0D150C50101C0880FDA95EAF7CC
:10272000381A10919606280CC150A50101C0440F1B
:10273000CA95EAF7F42FF2192F2E212F4F2F632D70
:1027400080918A0690918B060E940C12EC01909366
:102750008B0680938A06212F422D632D80918C0653
:1027600090918D060E94251290938D0680938C0681
:10277000113009F475C008F43AC0123009F481C070
:10278000133009F493C08C019E013BC0FC0184917D
:10279000C80FD11D44CF8091AC069091AD06C80FF3
:1027A000D91F8E0160E0C8010E949612C80FD91F80
:1027B00062E0C8010E9496120C5F1F4F88159905B0
:1027C00088F3FE01849190E0982F88273196E49158
:1027D0008E2B009709F429CF8816990611F42396B9
:1027E0005DCFFE013296E491CE0FD11DEACF9E015E
:1027F000200F311D07FD3A958C01080D111D87FC36
:102800001A95AC01BE0180E496E00E94380F88233F
:1028100019F110928E0610928F06809199060E94EF
:102820009A0BD82F80919A060E949A0BC82F60E0CD
:102830008D2F0E943E1261E08C2F0E943E1281E09B
:102840000E949A0B8111F3CF80918F0688152CF38B
:10285000809194068093B406892D990C990BE7CE4C
:102860009E012F5F3F4FAC01400F511D07FD5A9550
:102870008A01A5014819510987FC5395C40FD51F3A
:10288000C0CFB501601B710907FD73959E012F5FD5
:102890003F4F8C010F5F1F4FA5014819510987FC5D
:1028A0005395840F951FC60FD71FABCF9E01280DE0
:1028B000311D87FC3A95A501401B510907FD539531
:1028C0008C010F5F1F4F840F951F9BCFE80EF91EE1
:1028D000BBCEC80ED91EB8CEE81AF90AB5CEC81AB2
:1028E000D90AB2CEC301DF91CF911F910F91FF9012
:1028F000EF90DF90CF90BF90AF909F908F907F90A0
:102900006F905F904F903F902F9008952FE53CE09F
:1029100030934306209342060C94A212CF93DF9388
:1029200020918406309185062817390709F490C054
:10293000EC019093850680938406FC01849180933A
:1029400097063196E491E0939806FE013296E49161
:10295000E0939906FE013396E491E0939A06FE0116
:102960003496E491E0939B06FE013596E491E09362
:102970009C06FE013696E491E0939D06FE01379693
:10298000E491E0939E06FE013896E491E0939F0661
:10299000FE013996E491E093A006FE013A96E49197
:1029A000E093A106FE013B96E491E093A206FE01AE
:1029B0003C96E491E093A306FE013D96E491E093FA
:1029C000A406FE013E96E491E093A506FE013F9623
:1029D000E491E093A606FE017096E491E093A706C9
:1029E00061E1CE010E9496129093A9068093A806F9
:1029F00063E1CE010E9496129093AB068093AA06E3
:102A000065E1CE010E9496129093AD068093AC06CC
:102A10008091840690918506892BD1F08091A4063F
:102A20008093B0064091A5064093B1069091AF0601
:102A3000992371F0913079F49091A606891714F4D6
:102A40009093B0068091A706841714F48093B10682
:102A5000DF91CF9108953091A1062091A306082E11
:102A6000000C990B622F022E000C770B630F711D67
:102A700037FD7A95861797071CF4320F3093B0060E
:102A8000241734F72093B106E3CF80E00895DC01EA
:102A90001A96ED91FC9130E020E00994EF92FF92BC
:102AA0001F93CF93DF93EC01162F7A010E94200F22
:102AB00060E4CE010E94290FE885F9859701412F36
:102AC00067E1CE010995CE01DF91CF911F91FF9073
:102AD000EF900C94170FEF92FF921F93CF93DF9319
:102AE000EC01142F7901663181F138F4643109F475
:102AF0004BC0653179F080E022C06831C9F150F1F6
:102B00006931C9F780911F06882391F1CE010E9497
:102B1000170F2EC080911F06882319F0CE010E9446
:102B2000170FCE010E94200F60E0CE010E94290FF6
:102B3000612FCE010E94290F81E080931F06DF9153
:102B4000CF911F91FF90EF900895642F0E94290F5D
:102B500081E0F5CF80911F06882319F0CE010E94F5
:102B6000170FA701193138F4612FCE010E944E15BD
:102B700010921F06EDCF68E1CE010E944E1518514C
:102B800088E1E80EF11CEDCF8E898F3F11F488E7C4
:102B90008E8BE885F9859701412F64E1CE01DF91A5
:102BA000CF911F91FF90EF900994DC011696ED9163
:102BB000FC9130E020E040E069E10994DC011696E8
:102BC000ED91FC9130E020E040E068E109949A0149
:102BD000DC011696ED91FC91462F67E10994EF9286
:102BE000FF920F931F93CF93DF931F92CDB7DEB762
:102BF0007C018B01D8016C91673129F150F465316A
:102C0000A0F40F90DF91CF911F910F91FF90EF9063
:102C100008956A3118F16E3FA1F7F80141814983A7
:102C200069E2C7010E9447150BC0F8014181498341
:102C3000D7011696ED91FC9130E020E0C70109958F
:102C40000E5F1F4FD7CFF80181818983AE014F5F9F
:102C50005F4F61E0C7010E94E715F2CF0F5F1F4F82
:102C6000D7011696ED91FC9130E020E040E0C701DD
:102C70000995C0CF462FDC011696ED91FC9130E00E
:102C800020E066E10994462FDC011696ED91FC9157
:102C900030E020E065E10994EF92FF920F931F93DB
:102CA000CF93DF93EC01042F79016D3009F446C016
:102CB00050F46B30C9F1693009F49FC06A3009F4EF
:102CC00065C080E046C06E3009F452C06F3099F79D
:102CD0000E94DE15F7011381110F110F110F6C897E
:102CE000160F60E4CE010E944316612F62956F704B
:102CF0006061CE010E944316612F6F70CE010E9469
:102D00003A16F7016481606BCE010E943A16F70112
:102D1000408151816281660F660F660FCE010E946D
:102D2000E7150150A1F72EC06CE171E0442311F0CA
:102D300067E171E0CE010E94EF150AC0411110C099
:102D400060E171E00E94EF15E881F98182898C8B46
:102D500081E0DF91CF911F910F91FF90EF90089547
:102D600069E071E00E94EF15E881F9818389EFCF76
:102D70000E94DE1561E8CE010E944316602FCE014D
:102D80000E943A16CE010E94D515E2CFEA85FB8556
:102D900030E020E040E068E2CE010995EE81FF815D
:102DA00030E020E040E064E1CE01099541E06BE4D1
:102DB000CE010E944715E881F981448169E2CE0184
:102DC0000E94471540E06BE4CE010E944715E88160
:102DD000F981448169E2CE010E94471541E06BE42C
:102DE000CE010E944715E881F981458169E2CE0153
:102DF0000E94471561E271E09DCF86E591E09983DD
:102E000088831C8AA5CF0F93DC019A96ED91FC91E3
:102E10009B974E1B5F0B5E96ED91FC9109950F9170
:102E200008952F923F924F925F926F927F928F926E
:102E30009F92AF92BF92CF92DF92EF92FF920F9349
:102E40001F93CF93DF93EC011DAA1CAA68A879A851
:102E50007FAA6EAA4CA45DA459AE48AE2EA43FA48E
:102E60003BAE2AAEFC01EE5BFF4FE080F180AEACE2
:102E7000BFAC3297C080D1808CAC9DAC87019501EE
:102E8000A601B4010E94380FFE01E259FF4F8111E3
:102E900014C01082DF91CF911F910F91FF90EF909E
:102EA000DF90CF90BF90AF909F908F907F906F906A
:102EB0005F904F903F902F90089581E08083811420
:102EC000910411F09DAA8CAAA614B70410F4BFAA0D
:102ED000AEAA4C145D0410F4D9AEC8AEE214F304EB
:102EE000C8F6FBAEEAAED6CFCF93DF93FC01A0814C
:102EF000B18184A190E09C0143E0220F331F4A95E9
:102F0000E1F731A720A750962C91509748E0249FD5
:102F10009001112437A326A325A130E0B90153E085
:102F2000660F771F5A95E1F773A762A751964C91E8
:102F30005197E901C80FD91F50E04C175D0718F4ED
:102F4000CA01821B930B75A764A723E0880F991F02
:102F50002A95E1F7860F971F97A786A754968D911C
:102F60009C91559791AB80AB56968D919C9193AB6C
:102F700082ABDF91CF910895AF92BF92CF92DF9253
:102F8000EF92FF920F93CF93DF93EC01DA01790177
:102F9000942F9770E1E0F0E09F01092E01C0220F0D
:102FA0000A94EAF7522F6E0184E7C80ED11CF6018D
:102FB000808140E0823018F4422F813049F15D0178
:102FC000F8EFAF22EAA1FBA128813981D9015096FF
:102FD0008C918A9D90018B9D300D1124620F731F7F
:102FE000DF01A60FB71F01111AC0EA0EFB1E8C915C
:102FF000842B85278D93AE15BF05C9F7DF91CF913F
:103000000F91FF90EF90DF90CF90BF90AF90089519
:1030100050E0D5CF440F550FE114F10479F33C9102
:10302000342B35273C939F5F9770E1E0EE1AF1084F
:103030009111F0CF2EA13FA1A20FB31FF601808105
:10304000823028F4813009F051E041E0E5CF51E0D1
:10305000E3CFE0E4F6E0A081B18150962C9184A109
:1030600038E0839FC0011124289FA001299F500DA3
:10307000112470E060E082A193A10C940626CF9306
:10308000C82F0E94291887EB99E00E948E1444EA09
:1030900051E06FE070E08AE090E00E94861482E6E2
:1030A00091E00E948E1441EB51E063E270E088E20F
:1030B00090E00E9486144DEB51E067E370E088E2F7
:1030C00090E00E94861445E050E06EE170E084E1FB
:1030D00090E00E941F1145E050E062E370E084E15F
:1030E00090E00E941F1123E030E043E050E06EE1E9
:1030F00070E0CC2311F062E370E084E190E00E9484
:10310000650FCF910C94960BCF93DF93C5E10E948E
:10311000D00D811104C080E0DF91CF91089580919E
:1031200034069091350696FD0EC095FD40C02FEFF8
:1031300083EF91E0215080409040E1F700C0000013
:10314000C15029F7E8CFC0E08FE39CE90197F1F780
:1031500000C0000080912406909125069E7F9093E8
:1031600025068093240680912606909127069F7756
:1031700090932706809326060E94740D882359F2A7
:10318000DBE00E94D00D882331F2809134069091CB
:10319000350696FF0EC09FEF26E781E09150204054
:1031A0008040E1F700C00000D15059F7B4CFC1E032
:1031B000CBCF81E08C27B0CFCF92DF92EF92FF92FE
:1031C0006B017C0120E030E04FEA52E40E94E423EE
:1031D00087FD3CC020E030E048ED52E4C701B60175
:1031E0000E943C25181634F4C12CD12C9FEAE92EFC
:1031F00092E4F92E0E94D00D882379F120E030E08E
:103200004FEA52E4C701B6010E9477232DEC3CEC53
:103210004CEC5DE30E94E9230E945B24209126068A
:103220003091270622273E7F3068C901862B972BD5
:1032300090932706809326060E94740D882369F0D8
:10324000FF90EF90DF90CF900C948418C12CD12C7C
:1032500088EDE82E82E4F82ECDCF80E0FF90EF904D
:10326000DF90CF9008950E94D00D882371F0809157
:10327000240690912506916090932506809324065C
:103280000E94740D81110C94841880E00895CF93EE
:103290000E94D00D882319F1809124069091250673
:1032A0009E7F90932506809324060E94740D8823A8
:1032B000B1F0C6E00E94D00D882389F02091340639
:1032C0003091350636FF0CC02FEF86E791E0215094
:1032D00080409040E1F700C00000C15059F780E005
:1032E000CF9108956A3241F130F4683261F0693269
:1032F000E1F081E008956B3211F16B34D1F7442392
:1033000001F1289AF6CF209A289A2FE788E391E0D6
:10331000215080409040E1F700C00000EACF8FECE0
:1033200097E00197F1F700C000004150C0F7E1CFEE
:103330009AE19A95F1F700C04150D0F7DACF00003A
:10334000D8CF2898D6CF1F93CF93DF9300D000D04B
:103350001F92CDB7DEB7682F70E090E080E00E944A
:103360008C2420E030E040E250E40E94E9230E94F7
:103370005B24162F4AE0BE016F5F7F4F812F90E0E4
:103380000E94BA200E9429184EE150E060E270E0ED
:103390008DE290E00E941F11812F6AE00E94BE25FD
:1033A000482F440F840F482F50E09A0160E270E0EC
:1033B0008DE290E00E94650F87EB99E00E948E14E9
:1033C00047EC51E06FE170E085E590E00E948614E3
:1033D0006BEC71E0CE0101960E940D26AE014F5FAD
:1033E0005F4F6DE270E085E590E00E9486140E94D8
:1033F000960B0F900F900F900F900F90DF91CF9141
:103400001F910895EF92FF920F931F93CF93DF9335
:1034100000D01F92CDB7DEB7E82E882331F0F12C13
:103420008FEFE81AF80AF594E7944AE0BE016F5F5F
:103430007F4F8E2D90E00E94BA200E94291887EBC2
:1034400099E00E948E144DEC51E06FE070E08AE04C
:1034500090E00E948614AE014F5F5F4F62E370E020
:1034600084E190E00E9486140FE110E021E630E054
:1034700049E150E06DE070E080E496E00E94380F92
:10348000882321F120E044E550E069E170E08DE01F
:1034900090E00E94CA0B21E044E050E06AE170E055
:1034A0008DE090E00E94CA0B21E044E050E06AE128
:1034B00070E080E690E00E94CA0B20E044E550E016
:1034C0006EE170E08DE090E00E94CA0BEE2019F1F1
:1034D0008AE0E89E700111249701215F3F4F0DE1C2
:1034E00010E04BE150E06FE070E080E496E00E9475
:1034F000380F882381F020E0A7016BE170E08FE0B6
:1035000090E00E94CA0B20E0A7016CE170E08FE020
:1035100090E00E94CA0B0E94960B0F900F900F90A4
:10352000DF91CF911F910F91FF90EF900895AF928F
:10353000BF92CF92DF92EF92FF920F931F93CF93A0
:10354000DF93CDB7DEB764970FB6F894DEBF0FBE3A
:10355000CDBFA42EF22EB02E8E010F5F1F4F21E0A3
:1035600044E00E949C204AE0BE016F5E7F4F8A2D9E
:1035700090E00E94BA204AE0BE01675F7F4F8E2D27
:1035800090E00E94BA200E94291887EB99E00E94DF
:103590008E14A8016CE170E088E290E00E9486142D
:1035A00082E691E00E948E14A60162E370E0BB20E7
:1035B00061F047ED51E06DE270E080E290E00E9442
:1035C00086144FED51E067E370E089E190E00E94DE
:1035D0008614AE014F5E5F4F68E070E087E390E0D5
:1035E0000E9486144BEE51E0FF2011F04DEE51E0A9
:1035F00068E070E084E190E00E9486140E948411EB
:103600006BEC71E0CE0109960E940D26AE01475F7A
:103610005F4F68E070E08EE690E00E9486140E94A2
:10362000960B64960FB6F894DEBF0FBECDBFDF9148
:10363000CF911F910F91FF90EF90DF90CF90BF90AF
:10364000AF900895CF92DF92EF92FF920F931F9366
:10365000CF93DF93CDB7DEB764970FB6F894DEBF94
:103660000FBECDBFC42EF22ED02E8E010F5F1F4F86
:1036700021E044E00E949C204AE0BE016F5E7F4F43
:103680008C2D90E00E94BA204AE0BE01675F7F4F18
:103690008E2D90E00E94BA200E94291887EB99E0B5
:1036A0000E948E14A8016CE170E088E290E00E9414
:1036B000861482E691E00E948E14DD2081F047EDB1
:1036C00051E06DE270E080E290E00E9486144FEDE0
:1036D00051E067E370E089E190E00E948614AE015A
:1036E0004F5E5F4F68E070E087E390E00E948614D1
:1036F0004BEE51E0FF2011F04DEE51E068E070E03C
:1037000084E190E00E9486140E9484116BEC71E0C9
:10371000CE0109960E940D26AE01475F5F4F68E01B
:1037200070E08EE690E00E9486140E94960B6496EC
:103730000FB6F894DEBF0FBECDBFDF91CF911F91C2
:103740000F91FF90EF90DF90CF9008951F920F920E
:103750000FB60F9211248F939F9389B180931E0609
:10376000809102018823F9F080911E0690911D0638
:10377000892783FF23C010921C061092020181E06A
:1037800080931B061092B2008091B1008D7F8093D0
:10379000B1008091B10085608093B100809170008C
:1037A00081608093700080911E0680931D069F911A
:1037B0008F910F900FBE0F901F90189580911E064D
:1037C00090911D06892784FF04C081E080931C0628
:1037D000D4CF80911E0690911D06892785FF02C0D7
:1037E00082E0F4CF80911E0690911D06892786FF06
:1037F000C4CF83E0EBCF1F920F920FB60F9211242C
:103800008F9381E080931B068F910F900FBE0F90D6
:103810001F9018951F920F920FB60F9211248F933D
:1038200080911A068F5F80931A0680911A06833062
:1038300028F010921A0681E08093190680911806EC
:10384000882329F01092180681E0809319068F9141
:103850000F900FBE0F901F9018951F920F920FB6EA
:103860000F9211248F93809117068823A1F08091E5
:1038700016068C3028F01092160681E08093190607
:10388000809116068F5F809316068F910F900FBE62
:103890000F901F90189580911506882389F38091C9
:1038A00016068F3068F3109216061092150681E006
:1038B00080931706E5CFCF93DF93CDB7DEB72A9776
:1038C0000FB6F894DEBF0FBECDBF54985C9A5598E2
:1038D0005D9A53985B9A56985E9A579A229A399AAB
:1038E0005F982A9A419A89B180931D068091680059
:1038F00084608093680080916D00886780936D007C
:10390000789410924106109240061092550610923B
:10391000580610924C0610924D0610924E061092C8
:103920004F068FEF8093560680935A068CE496E1FB
:1039300090934506809344068BE695E19093470665
:103940008093460689ED9EE0909349068093480651
:1039500082E799E190934B0680934A0630E020E09D
:1039600040E069E080E496E00E944C1610928506E3
:10397000109284068CEB97E190935F0680935E062D
:103980008EEF91E0909363068093620688E08093C7
:10399000640610926506109293061092B306109278
:1039A000AF0681E08093B4068093B50683E091E092
:1039B000909361068093600680E496E00E947417FD
:1039C00010927D0610927C0610928106109280065D
:1039D0008FEF9FEF90937F0680937E0690938306F0
:1039E00080938206E0916006F09161060280F38187
:1039F000E02D80E496E0099589E092E190938706B6
:103A00008093860610929606E0914406F091450652
:103A100030E020E040E06AE080E496E00995E09143
:103A20004406F091450630E020E040E06BE080E4A1
:103A300096E00995809101010E94260D8091B506BE
:103A400081110E94291880E00E94310D0E943E0BD6
:103A50001091650680916406180FE0914006F09180
:103A600041068189181708F42BC10E94330B80E0AE
:103A70000E94310D80EC80937C0086E880937A0070
:103A8000219A87B1806387B9449829988FE19EE491
:103A90000197F1F700C00000299A8FE19EE4019799
:103AA000F1F700C000008AB183608AB980E1809399
:103AB000B8001092B9000E94D00D882309F44EC0BE
:103AC00080E091E890932F0680932E060E94740D5B
:103AD000882309F443C09FEF24E38CE091502040F9
:103AE0008040E1F700C000000E94D00D8823B1F1B2
:103AF000809124069091250681609A669093250610
:103B000080932406809128069091290698619093CD
:103B100029068093280680912A0690912B068073AF
:103B200099278761996190932B0680932A0680914B
:103B30002C0690912D068827886490932D068093FB
:103B40002C060E94740D882349F09FE72FEA82E03B
:103B5000915020408040E1F700C0000081E090E0FB
:103B60000E94262380931406823010F010921406CF
:103B7000809114068111ABC0419A2A9881E00E947D
:103B80004D0E80E090E00E94262380931306803142
:103B900018F087E080931306809113060E94660E4A
:103BA0000E943319882309F496C0109212060E94CD
:103BB000D00D882309F495C06091360670913706C0
:103BC000737090E080E00E948A242DEC3CEC4CEC79
:103BD0005DE30E94412520E030E04FEA52E40E947C
:103BE000782360930E0670930F06809310069093CF
:103BF00011068091340680930D0610920C060E94E7
:103C0000C50E0E947F0E80930B069FE722E382E0A1
:103C1000915020408040E1F700C0000080913406C0
:103C200090913506882796707FEEC72E71E0D72ECB
:103C3000029758F440E1BE016F5F7F4F80913806D4
:103C4000909139060E94BA206C0160910E06709125
:103C50000F068091100690911106E0900B060091DE
:103C6000120620910C0640910D060E94971A1092A0
:103C7000850010928400809181008D7F8093810067
:103C80008091810085608093810080916F008160C8
:103C900080936F00FF24F39411E020911B062130E4
:103CA00009F0B6C090911C0689B180931E0691114F
:103CB0001CC080911E0686958695869582271DC01C
:103CC0008091B50681110E942918812FBDCE2A9AB4
:103CD000419880E054CF81E0809312060E944719FA
:103CE00066CF60E070E0CB017CCF913009F0DFC09F
:103CF00080911E0682958F708927817020911C0605
:103D0000422F50E010921B069A01220F331FF90137
:103D1000E40FF51FE150FA4F90819813DBC09181B9
:103D20009F5F9183953070F082831182109302011E
:103D30009091B100987F9093B100909170009E7F18
:103D400090937000240F351FF901E150FA4F8083E2
:103D5000E0911C068E2F90E0FC01EE0FFF1FE80F94
:103D6000F91FE150FA4F22812130E1F4E0911C0665
:103D70008E2F90E0FC01EE0FFF1FE80FF91FE150BE
:103D8000FA4F818181110EC02093190680910A0695
:103D9000813009F0A5C08091FE05833009F09CC0F8
:103DA0001092FE05E0911C068E2F90E0FC01EE0FB4
:103DB000FF1FE80FF91FE150FA4F8281811128C0DF
:103DC000E0911C068E2F90E0FC01EE0FFF1FE80F24
:103DD000F91FE150FA4F818181111AC0109302013D
:103DE00080911506811104C080911706882381F007
:103DF00085B5887F85BD80916E008E7F80936E0033
:103E000010921506109217061092160610921906B7
:103E100080911906813009F040CF109219068091E7
:103E2000FE0581110DC100910106013009F07BC032
:103E30000E943319882309F46BC010921206109265
:103E400085001092840010921A06009318060E94B2
:103E5000D00D882309F463C060913606709137064F
:103E6000737090E080E00E948A242DEC3CEC4CECD6
:103E70005DE30E94412520E030E04FEA52E40E94D9
:103E8000782360930E0670930F068093100690932C
:103E900011064091340640930D0610920C06E090F6
:103EA0000B060091120620E00E94221BF6CE9230F3
:103EB00031F480911E06829586958770FFCE80E052
:103EC000933009F01BCF80911E06829586958695CA
:103ED0008370F4CEF18236CF8F5F8093FE0562CF80
:103EE00080910406813029F080910706813009F025
:103EF00059CF16BC85B58D7F85BD85B5856085BDDF
:103F000080916E00816080936E00109315064ACFF9
:103F1000009312060E9447191092180698CF60E08D
:103F200070E0CB01AECF809104068130B9F51092DC
:103F300085001092840010921A06109218062DEC3B
:103F40003CEC4CEC5DE360910E0670910F068091A5
:103F50001006909111060E94782360930E067093CC
:103F60000F0680931006909311062091340620933B
:103F70000D0610920C060E94DC1860910E067091DE
:103F80000F068091100690911106E0900B060091AB
:103F9000120620910C0640910D0686CF80910706EF
:103FA0008130B9F4109285001092840010921A06A4
:103FB000109218062DEC3CEC4CEC5DE360910E0683
:103FC00070910F0680911006909111060E94772340
:103FD000C4CF0E94C50E0E947F0E80930B060E94E4
:103FE000D00D809134069091350680930D06109285
:103FF0000C06882796700297F0F440E1BE016F5FCF
:104000007F4F80913806909139060E94BA206C014A
:1040100060910E0670910F06809110069091110626
:10402000E0900B060091120620910C0640910D06BF
:104030000E94971A32CE8FEEC82E81E0D82EE8CF9C
:10404000813099F580911306909104069130C9F45E
:104050008E3078F4882391F08E5F80931306009160
:104060001306802F0E94660E602F80E090E00E9471
:104070002E23809113060E94021A0FCE90931306EE
:10408000EECF909107069130B1F7823028F00EEF15
:10409000080F00931306E5CF813059F710921306ED
:1040A00080E00E94660E60E0E0CF823031F5009142
:1040B0000706013089F42A9A419880E00E944D0E4B
:1040C0000093140681E00E943F186091140681E07D
:1040D00090E00E942E23E1CD80910406813041F4CE
:1040E000419A2A980E944D0E1092140680E0EBCF60
:1040F000809114060E943F18D0CD833009F0CDCDB9
:104100008091010190910706913069F4823308F49F
:10411000C4CD8951809301010E94260D8091010137
:104120000E94A319BACD909104069130C9F7823E3E
:1041300008F0B3CD875EEECFEF920F931F93CF932E
:10414000DF93E80134E047FD34E1042E000C550B09
:1041500057FF03C0519541955109E32E022F242F9B
:10416000AE010E94DF20CE01DF91CF911F910F9110
:10417000EF900895BB274A3031F4992322F4BDE231
:10418000909581959F4F0C94C620BB27FB01552726
:10419000AA27880F991FAA1FA41710F0A41B8395A4
:1041A0005051B9F7A05DAA3308F0A95DA19300971B
:1041B00079F7B111B1931192CB010C941623A9E0B8
:1041C000B0E0E5EEF0E20C9446236A01F22EB02E48
:1041D000102FFBE3AF2EA01608F41BE31F5F012F87
:1041E00027E0AE014F5F5F4F0E943E22BC018981F4
:1041F000982F9970913009F43FC09BE2E1FC04C014
:104200009E2D9170E0FC3AC05E2D5071E82FE87051
:1042100083FF46C084E0911101C083E0EF2DE81BCD
:104220008F1508F0E0E0D6018E2F20E2552351F1E2
:10423000992329F0D6019C93C60101966C01960141
:104240002D5F3F4FE2FE24C08EE4D6018C9391E4B3
:1042500011969C93119712968C93D9018E2F90E210
:1042600081111BC0E20FF32FF11D10828EEF9FEF23
:104270002996ECE00C9462239DE2C6CF90E2C4CF75
:104280002D9381508111FCCFCE0ED11CE0E0D0CF18
:104290008EE6D6018C9391E6DBCF9D938150E0CFE3
:1042A000482F447082FF3DC084E0911101C083E03B
:1042B0008F1510F4EF2DE81BD6018E2F20E2552329
:1042C00009F1992329F0D6019C93C60101966C014E
:1042D00096012D5F3F4FE2FE1BC089E4D6018C930F
:1042E0008EE411968C93119786E412968C93D901E3
:1042F0008E2F90E2882309F4B5CF9D938150FACF99
:104300002D9381508111FCCFCE0ED11CE0E0D9CF8E
:1043100089E6D6018C938EE611968C93119786E6EA
:10432000E4CF9B0177FF02C030E020E0A1E0B0E0E5
:10433000911102C0B0E0A0E0F9013196AE0FBF1FAD
:104340008B2C912CBB2009F461C05401EFEFAE1A05
:10435000BE0AAA0DBB1DFA161B0619F014F04F2D4C
:104360004A1B511188C0E3FC59C07601A42FB0E26A
:10437000A1114FC0C40ED11C992309F45BC040E0C9
:10438000D6011196F60190836D01552309F448C0BA
:10439000012F060F9A81582F507184FF03C091336B
:1043A00009F4015010160CF047C0093008F008E07D
:1043B000EEE2FE2E5B01A01AB10885019194819472
:1043C00091082F3F320729F4D601FC92F60131966D
:1043D0006F016217730794F1021713077CF5DB0175
:1043E000A21BB30BAA24A394B12CAC0EBD1EAA0D24
:1043F000BB1D11968C9121503109D60111962815BB
:104400003905F4F0F60180836D01DBCFB12CA12CCE
:10441000A0CFF701B1937F01A150AACF9111B0CFE6
:10442000D601942F50E302C05D9391509111FCCFBF
:10443000C40ED11C40E0ACCF01E0BACF80E3DBCFAB
:104440006217730731F4963388F4953311F45523CA
:1044500069F0F6018083FD01842F90E2811108C08C
:10446000A40FB11D1C9290E080E002CF81E3F1CF58
:1044700091938150F3CF911183CF8ACF283008F0E8
:1044800027E03327DA01990F311D87FD91600096EF
:104490006105710539F432602E5F3D9330E32A9552
:1044A000E1F708959F3F30F080387105610509F00C
:1044B0003C5F3C5F3D93913008F08068911DDF9335
:1044C000CF931F930F93FF92EF92192F987F96959A
:1044D000E92F96959695E90FFF27EE53FF4F992701
:1044E0003327EE24FF24A701E701059008940794E1
:1044F00028F4360FE71EF81E491F511D660F771F5F
:10450000881F991F0694A1F70590079428F4E70ED9
:10451000F81E491F561FC11D770F881F991F661F60
:104520000694A1F70590079428F4F80E491F561F2A
:10453000C71FD11D880F991F661F771F0694A1F70B
:104540000590079420F4490F561FC71FD81F990FD5
:10455000661F771F881F0694A9F78491109517701E
:1045600041F0D695C79557954795F794E7941A95D6
:10457000C1F7E8E6F0E068941590159135916591E2
:10458000959105907FE27395E118F10A430B560B64
:10459000C90BD009C0F7E10CF11E431F561FC91FFC
:1045A000D01D7EF4703311F48A95E6CFE894015063
:1045B00030F0080F0AF40027021708F4202F239583
:1045C000022F7A3328F079E37D932A95E9F710C01A
:1045D0007D932A9589F60694979567953795179553
:1045E0001794E118F10A430B560BC90BD00998F048
:1045F00023957E9173957A3308F070E37C932013B2
:10460000B8F77E9170617D9330F0839571E37D936F
:1046100070E32A95E1F71124EF90FF900F911F911D
:10462000CF91DF91992787FD90950895DC01FC01DA
:10463000672F71917723E1F7329704C07C916D93D6
:1046400070836291AE17BF07C8F30895F999FECF42
:1046500092BD81BDF89A992780B50895262FF999C2
:10466000FECF92BD81BDF89A019700B4021639F0D1
:104670001FBA20BD0FB6F894FA9AF99A0FBE0895A2
:104680002F923F924F925F926F927F928F929F9262
:10469000AF92BF92CF92DF92EF92FF920F931F9350
:1046A000CF93DF93CDB7DEB7CA1BDB0B0FB6F89401
:1046B000DEBF0FBECDBF09942A88398848885F8441
:1046C0006E847D848C849B84AA84B984C884DF80B2
:1046D000EE80FD800C811B81AA81B981CE0FD11D96
:1046E0000FB6F894DEBF0FBECDBFED010895505850
:1046F000BB27AA270E948F230C9402250E94F42432
:1047000038F00E94FB2420F039F49F3F19F426F47E
:104710000C94F1240EF4E095E7FB0C94EB24E92FC4
:104720000E94132558F3BA17620773078407950789
:1047300020F079F4A6F50C9435250EF4E0950B2EB7
:10474000BA2FA02D0B01B90190010C01CA01A001E3
:104750001124FF27591B99F0593F50F4503E68F13E
:104760001A16F040A22F232F342F4427585FF3CF7F
:10477000469537952795A795F0405395C9F77EF450
:104780001F16BA0B620B730B840BBAF09150A1F099
:10479000FF0FBB1F661F771F881FC2F70EC0BA0F1F
:1047A000621F731F841F48F4879577956795B795A7
:1047B000F7959E3F08F0B0CF9395880F08F09927A2
:1047C000EE0F9795879508950E94C72408F481E01D
:1047D00008950E94FD230C9402250E94FB2458F0AA
:1047E0000E94F42440F029F45F3F29F00C94EB245C
:1047F00051110C9436250C94F1240E94132568F372
:104800009923B1F3552391F3951B550BBB27AA2789
:1048100062177307840738F09F5F5F4F220F331FC3
:10482000441FAA1FA9F335D00E2E3AF0E0E832D08B
:1048300091505040E695001CCAF72BD0FE2F29D08E
:10484000660F771F881FBB1F261737074807AB0760
:10485000B0E809F0BB0B802DBF01FF2793585F4FD5
:104860003AF09E3F510578F00C94EB240C943625D9
:104870005F3FE4F3983ED4F3869577956795B795B7
:10488000F7959F5FC9F7880F911D9695879597F9C2
:104890000895E1E0660F771F881FBB1F621773073B
:1048A0008407BA0720F0621B730B840BBA0BEE1F50
:1048B00088F7E09508950E941B2588F09F5798F08F
:1048C000B92F9927B751B0F0E1F0660F771F881F15
:1048D000991F1AF0BA95C9F714C0B13091F00E942F
:1048E0003525B1E008950C943525672F782F88275A
:1048F000B85F39F0B93FCCF3869577956795B39556
:10490000D9F73EF490958095709561957F4F8F4FC4
:104910009F4F0895E89409C097FB3EF490958095C9
:10492000709561957F4F8F4F9F4F9923A9F0F92F75
:1049300096E9BB279395F695879577956795B795F3
:10494000F111F8CFFAF4BB0F11F460FF1BC06F5FD9
:104950007F4F8F4F9F4F16C0882311F096E911C0EB
:10496000772321F09EE8872F762F05C0662371F00C
:1049700096E8862F70E060E02AF09A95660F771F20
:10498000881FDAF7880F9695879597F90895990FFC
:104990000008550FAA0BE0E8FEEF16161706E80709
:1049A000F907C0F012161306E407F50798F0621B2A
:1049B000730B840B950B39F40A2661F0232B242BFF
:1049C000252B21F408950A2609F4A140A6958FEF1E
:1049D000811D811D089597F99F6780E870E060E070
:1049E00008959FEF80EC089500240A941616170688
:1049F00018060906089500240A94121613061406D0
:104A000005060895092E0394000C11F4882352F032
:104A1000BB0F40F4BF2B11F460FF04C06F5F7F4FEA
:104A20008F4F9F4F089557FD9058440F551F59F0D1
:104A30005F3F71F04795880F97FB991F61F09F3F8B
:104A400079F087950895121613061406551FF2CFB4
:104A50004695F1DF08C0161617061806991FF1CF04
:104A600086957105610508940895E894BB2766272B
:104A70007727CB0197F908950E94C72408F48FEF98
:104A800008950E9454250C9402250E94F42438F0C5
:104A90000E94FB2420F0952311F00C94EB240C943D
:104AA000F12411240C9436250E94132570F3959F50
:104AB000C1F3950F50E0551F629FF001729FBB2715
:104AC000F00DB11D639FAA27F00DB11DAA1F649FB1
:104AD0006627B00DA11D661F829F2227B00DA11D64
:104AE000621F739FB00DA11D621F839FA00D611DEA
:104AF000221F749F3327A00D611D231F849F600D0B
:104B0000211D822F762F6A2F11249F5750409AF033
:104B1000F1F088234AF0EE0FFF1FBB1F661F771FBF
:104B2000881F91505040A9F79E3F510580F00C948A
:104B3000EB240C9436255F3FE4F3983ED4F386953E
:104B400077956795B795F795E7959F5FC1F7FE2B2A
:104B5000880F911D9695879597F90895DB018F939E
:104B60009F930E94FB25BF91AF91A29F800D911D45
:104B7000A39F900DB29F900D11240895991B79E089
:104B800004C0991F961708F0961B881F7A95C9F7DD
:104B900080950895A1E21A2EAA1BBB1BFD010DC032
:104BA000AA1FBB1FEE1FFF1FA217B307E407F507DD
:104BB00020F0A21BB30BE40BF50B661F771F881FB9
:104BC000991F1A9469F760957095809590959B014F
:104BD000AC01BD01CF010895A29FB001B39FC001F8
:104BE000A39F700D811D1124911DB29F700D811D19
:104BF0001124911D08950E94EC25A59F900DB49F4E
:104C0000900DA49F800D911D11240895DC0101C019
:104C10006D9341505040E0F70895FB01DC010D9089
:104C20000020E9F7119701900D920020E1F7089517
:044C3000F894FFCF26
:104C34000196017417111703171815A015C019FF51
:104C44001815A115C819FF1815AE19FF1815AF19B5
:104C5400FF1815AE15D5168015A8163F15D31600E6
:104C64001540158D16141520160015A115C815DA52
:104C74001612158116CF15D916F115DB1640152E0F
:104C840015A415A619FF0001140A64643232001237
:104C94007A000004289610080000800040000001FB
:104CA40003050A0F141E28323C46505A5F64E40C74
:104CB4000A0D560DA20D600E7E0E9C0EBA0ECE0E7F
:104CC400EC0E1E0F500F8C0FDC0F22106810FCFF2F
:104CD400FFFFFFFC417564696F207679737475700A
:104CE40000526570726F64756B746F7200536C75EB
:104CF400636861746B61004A6173002500486C61EC
:104D04007369746F7374005374616E696365006EC4
:104D1400656E616C657A656E6121004D00530053C8
:0E4D24007061746E79207369676E616C0000B7
:00000001FF
